:100000000C942A000C9434000C9434000C943400AA
:100010000C9434000C9434000C9434000C94340090
:100020000C9434000C9434000C9434000C94340080
:100030000C9434000C9434000C9434000C94340070
:100040000C9434000C9434000C9434000C94340060
:100050000C94340011241FBECFE5D8E0DEBFCDBF25
:100060000E949F000C94C3000C9400009F7090BDF0
:1000700089B9089586E880BD08958AB188618AB9F2
:1000800008958AB1877E8AB908958BB185FB882748
:1000900080F991E0892708958BB18095881F882782
:1000A000881F08955D9BFECF8CB90895FC01919146
:1000B000992321F05D9BFECF9CB9F9CF0895282F9D
:1000C000FC018E2F821B861728F45D9BFECF819149
:1000D0008CB9F7CF08955F9BFECF2CB1FC01208334
:1000E0000895282FFC018E2F821B861728F45F9B12
:1000F000FECF8CB18193F7CF089516B817B810BE14
:10010000309A3E9A3D9A0895379A369A87B1807F01
:1001100087B987B187B9369BFECF85B108953798E7
:100120000895FC01369A97B1907F97B997B16F7097
:10013000692B67B9369BFECF85B180830895CF9335
:10014000DF931F92CDB7DEB78FEF84BB80E090E0E6
:100150000E9436000E943A000E943D000E947D00ED
:100160000E94840083EC99E00197F1F700C0000041
:10017000A89A60E0CE0101960E94910089810E94B8
:0A0180005200A898EFCFF894FFCFCB
:00000001FF
